:100000000C943E000C9450000C9450000C94500042
:100010000C9450000C9450000C9450000C94500020
:100020000C9450000C9450000C9450000C94500010
:100030000C9450000C9450000C9450000C948701C8
:100040000C9450000C9450000C949D010C945000A2
:100050000C9450000C9450000C9450000C945000E0
:100060000C9450000C9450000C9450000C945000D0
:100070000C9450000C9450000C94500011241FBE9E
:10008000CFEFD8E0DEBFCDBF21E0A0E0B1E001C0FE
:100090001D92A430B207E1F70E94DC000C94EC0141
:1000A0000C940000CF93DF9380E0CDEED0E0AFEE74
:1000B000B0E0EEEEF0E0982F9295907F98831C923E
:1000C00010828F5F8630B9F7DF91CF91089581E07C
:1000D0008093D80082E08093E20084E08093E30084
:1000E00083E18093E40081E008950E9467000E940C
:1000F0005200E8EDF0E080818260808380EA8093A6
:10010000DB0081E00895EF92FF920F931F93CF934E
:10011000DF9300D0CDB7DEB77A8369838C017C0191
:1001200028E0E20EF11CF801819191918F01BE014E
:100130006F5F7F4F03960E94AE010E151F0599F762
:100140000F900F90DF91CF911F910F91FF90EF9043
:100150000895CF93DF93FC01A081B181FB01418120
:10016000528113962D913C9114972417350771F005
:10017000FC0132960896EF01A191B19113962D9151
:100180003C9114972417350759F401C0EC01FB0189
:1001900086818C93E881F98181818F5F818303C09F
:1001A000E817F90741F7DF91CF91089584E087B907
:1001B000519A579A599A0895CF93DF93CDB7DEB7E6
:1001C000CB54D1090FB6F894DEBF0FBECDBF10924D
:1001D0000201CE010196988B8F8791E0998B88E080
:1001E0008E8799871B861A869E012D5E3F4F3AA304
:1001F00029A322E02BA388A31B8E1D8E1C8E2FEF1C
:1002000030E039A728A78FEF8FA789AB8BA788ABE2
:100210008DA78CA71DA29FA33EAB2DAB8CAF8EAF3D
:1002200088AF8DAF8AAF89AF1AAA9CAB24963FAF37
:100230002EAF24972A968FAF2A972C968FAF2C97A4
:1002400026968FAF26972B968FAF2B9728968FAF3A
:10025000289727968FAF27971FAE22969FAF22979A
:100260000E94D6000E947500BE01655E7F4FCE01E0
:10027000845B9F4F0E9483007894809101018823C2
:10028000A9F180910301882361F0BE01675F7F4F70
:10029000CE0185960E94A900809103018150809330
:1002A000030180910201853108F1109200018091D3
:1002B00000018330C8F49DE080910001E1E0F0E0AE
:1002C000EC0FFD1F989FE00DF11D112486A18130D8
:1002D00011F480910001809100018F5F80930001F3
:1002E00080910001833040F310920201809101015E
:1002F00081508093010180E090E0C55BDF4F0FB635
:10030000F894DEBF0FBECDBFDF91CF9108951F924D
:100310000F920FB60F9211248F93809101018F5F7E
:1003200080930101809102018F5F809302018F9180
:100330000F900FBE0F901F9018951F920F920FB63F
:100340000F9211248F93809103018F5F809303019B
:100350008F910F900FBE0F901F901895CF93DF9342
:10036000FC01DB011696CD91DC91179782818F708D
:1003700093819F709C5F01C0880F9A95EAF78983EB
:100380001696CD91DC91179784818A831696CD912C
:10039000DC91179785818B831696CD91DC91179709
:1003A00086818F7097819F709C5F01C0880F9A959E
:1003B000EAF78C8316960D90BC91A02D80858F70E6
:1003C00091859F709C5F01C0880F9A95EAF71596FA
:0C03D0008C93DF91CF910895F894FFCF3B
:00000001FF
