:100000000C943E000C9450000C9450000C94500042
:100010000C9450000C9450000C9450000C94500020
:100020000C9450000C9450000C9450000C94500010
:100030000C9450000C9450000C9450000C94AC03A1
:100040000C9450000C9450000C94CB030C94500072
:100050000C9450000C9450000C9450000C945000E0
:100060000C9450000C9450000C9450000C945000D0
:100070000C9450000C9450000C94500011241FBE9E
:10008000CFEFD8E0DEBFCDBF21E0A0E0B1E001C0FE
:100090001D92A430B207E1F70E9439020C94F404D7
:1000A0000C940000CF93DF931F92CDB7DEB7198277
:1000B00012C08DEE90E029812295207FFC012083E3
:1000C0008FEE90E0FC0110828EEE90E0FC01108239
:1000D00089818F5F89838981863058F300000F9072
:1000E000DF91CF910895CF93DF93CDB7DEB788ED41
:1000F00090E021E0FC01208382EE90E022E0FC0110
:10010000208383EE90E024E0FC01208384EE90E0E5
:1001100023E1FC01208381E0DF91CF910895CF930B
:10012000DF9300D0CDB7DEB79A8389838DEE90E060
:1001300029813A81F90120852295207FFC012083C5
:100140008EED90E02EED30E0F9012081622F2981C3
:100150003A81F9012085422F50E021E030E002C0D1
:10016000220F331F4A95E2F7262BFC01208387EFED
:1001700090E029813A81F9012381348136952795D0
:100180003695279536952795FC01208386EF90E0DC
:1001900029813A81F901238134812295220F207E21
:1001A000FC01208385EF90E0FC01108284EF90E059
:1001B000FC0110828FEE90E028E8FC012083000013
:1001C0000F900F90DF91CF910895CF93DF9300D0E0
:1001D0001F92CDB7DEB79B838A838A819B81FC0106
:1001E0008081882F90E0009719F0019739F00CC0BA
:1001F0008A819B810E941D01198213C08A819B8183
:100200000E948F0019820DC08BE290E02BE230E05B
:10021000F901308120E82327FC01208381E08983D4
:1002200000008981882311F482E001C083E00F90EF
:100230000F900F90DF91CF910895CF93DF9300D06F
:100240001F92CDB7DEB79B838A838A819B81FC0195
:100250008085863008F066C08DEE90E02A813B8173
:10026000F90120852295207FFC0120838EEE90E00D
:10027000FC01108283EF90E02A813B81F90121810A
:100280003281369527953695279536952795FC0129
:10029000208382EF90E02A813B81F9012181328124
:1002A0002295220F207EFC01208381EF90E0FC014B
:1002B000108280EF90E0FC011082198213C08AEF57
:1002C00090E02A813B81F901468157812981222FC3
:1002D00030E0240F351FF9012081FC012083898142
:1002E0008F5F89838981883050F38FEE90E02A8177
:1002F0003B81F90125812064FC01208300008EEE02
:1003000090E0FC018081882F90E080749927892BF0
:10031000B1F38FEE90E0FC0110828EEE90E0FC01D4
:10032000108201C000000F900F900F90DF91CF91CD
:100330000895CF93DF93CDB7DEB70E9473000E947C
:10034000520088ED90E028ED30E0F9012081226034
:10035000FC0120838BED90E020EAFC01208381E00A
:10036000DF91CF910895CF93DF9300D000D01F92FB
:10037000CDB7DEB79B838A837D836C83198215C0DA
:100380008981882F90E0880F991F2A813B81820FF5
:10039000931FFC018081918103962C813D81B901DD
:1003A0000E94E50389818F5F89838981833040F3CF
:1003B00000000F900F900F900F900F90DF91CF9152
:1003C0000895CF93DF9300D000D01F92CDB7DEB752
:1003D0009B838A837D836C8319823FC08981882FA8
:1003E00090E0880F991F2A813B81820F931FFC01A7
:1003F00080819181FC01238134818C819D81FC016C
:10040000818192812817390729F58981882F90E009
:10041000880F991F2A813B81820F931FFC018081E5
:1004200091812C813D81F90126813781FC01208356
:100430008981882F90E0880F991F2A813B81820F44
:10044000931FFC0180819181FC0121812F5FFC01C0
:10045000218307C089818F5F89838981833008F474
:10046000BDCF0F900F900F900F900F90DF91CF9115
:100470000895CF93DF93CDB7DEB7C557D1090FB637
:10048000F894DEBF0FBECDBF0E9484030E94990185
:100490000E94D80410920201CE010196988B8F879A
:1004A00081E0898B88E08E8781E089871B861A86A8
:1004B000CE0143969AA389A382E08BA388E088A308
:1004C0001B8E1D8E1C8E9E01225A3F4F89E29CE599
:1004D000ACEBB1E4F90180839183A283B3839E01E5
:1004E000225A3F4F84E69BE9ABEAB3E4F9018483E7
:1004F0009583A683B7839E012A593F4F89E29CE5E5
:10050000ACEBB1E4F90180839183A283B3839E01B4
:100510002A593F4F84E69BE9ABEAB3E4F9018483AF
:100520009583A683B7839E0122593F4F89E29CE5BC
:10053000ACEBB1E4F90180839183A283B3839E0184
:1005400022593F4F84E69BE9ABEAB3E4F901848387
:100550009583A683B7838FEF90E099A788A78FEF45
:100560008CAB82E08CA782E08DA71BA682E08AA7D5
:1005700082E08FABCE01825A9F4F9EAB8DAB1DA206
:1005800081E08FA38FEF90E09CAF8BAFCE01895BB2
:100590009F4F22E0FC01208382E08FAF1EAE82E0FD
:1005A0008DAFCE01865B9F4F22E0FC012083CE0100
:1005B0008A599F4F9EAB8DAB18AE81E08AAFCE01BA
:1005C000825B9F4F2FEF30E0FC0131832083CE010F
:1005D000865A9F4F2FEFFC012083CE018F5A9F4FE9
:1005E000FC011082CE01805B9F4F22E0FC01208342
:1005F000CE01835A9F4F22E0FC012083CE01825915
:100600009F4F9EAB8DABCE01855B9F4FFC0110824F
:10061000CE01835B9F4F21E0FC0120839E01255E7C
:100620003F4FCE018596B9010E94B3017894809125
:100630000301882369F09E01275F3F4FCE01859615
:10064000B9010E94E101809103018150809303016F
:1006500080910101882309F44CC080910201853109
:1006600008F447C0109200013DC080910001282F7E
:1006700030E043E1429FC001439F900D11249E0151
:100680002F5F3F4F820F931F8696FC018081813040
:1006900021F580910001282F30E043E1429FC00105
:1006A000439F900D11249E012F5F3F4F820F931F98
:1006B0008596FC01808180910001282F30E043E184
:1006C000429FC001439F900D11249E012F5F3F4F19
:1006D000820F931F8596FC011082809100018F5F2D
:1006E0008093000180910001833008F4BECF109206
:1006F0000201809102018F5F8093020180910101CC
:1007000081508093010193CFCF93DF93CDB7DEB7B4
:1007100087E290E024E0FC0120838AE290E02AE274
:1007200030E0F90120812260FC0120838AE290E020
:100730002AE230E0F90120812068FC0120838BE26D
:1007400090E02BE230E0F90120812260FC0120835F
:100750000000DF91CF9108951F920F9200905F00EB
:100760000F9211248F93CF93DF93CDB7DEB7809193
:1007700001018F5F80930101809102018F5F80935F
:1007800002010000DF91CF918F910F9000925F00E6
:100790000F901F9018951F920F9200905F000F927C
:1007A00011248F93CF93DF93CDB7DEB780910301F0
:1007B0008F5F809303010000DF91CF918F910F90A5
:1007C00000925F000F901F901895CF93DF9300D099
:1007D00000D000D0CDB7DEB79C838B837E836D8342
:1007E0008D819E81FC018681978123ECFC01208311
:1007F0008D819E81FC018681978102962B813C81AF
:10080000F9012481FC0120838D819E81FC01868178
:10081000978103962B813C81F9012581FC0120837E
:1008200084E0898303C089818F5F898389818830CF
:10083000D0F38D819E810E94E5001A82A7C08D8130
:100840009E81FC018681978125ECFC0120838D81AE
:100850009E81FC018681978101962A81222F30E0BA
:100860002F5F3F4F22953295307F3227207F3227EE
:10087000422F2B813C81F90127852423FC01208311
:100880008D819E81FC01868197819C012E5F3F4F67
:100890008B819C81FC01458556858A81882F90E05B
:1008A000880F991F880F991F840F951FFC01808165
:1008B0009181A281B381F90180838D819E81FC01A8
:1008C000868197819C012D5F3F4F8B819C81FC012C
:1008D000458556858A81882F90E0880F991F880F5B
:1008E000991F840F951FFC0180819181A281B381A2
:1008F000892F9A2FAB2FBB27F90180838D819E8191
:10090000FC01868197819C012C5F3F4F8B819C81EC
:10091000FC01458556858A81882F90E0880F991FB4
:10092000880F991F840F951FFC0180819181A281FE
:10093000B381CD01AA27BB27F90180838D819E81D8
:10094000FC01868197819C012B5F3F4F8B819C81AD
:10095000FC01458556858A81882F90E0880F991F74
:10096000880F991F840F951FFC0180819181A281BE
:10097000B3818B2F9927AA27BB27F90180838D810B
:100980009E810E94E5008A818F5F8A838B819C8192
:10099000FC0197858A81891708F451CF00002696BB
:1009A0000FB6F894DEBF0FBECDBFDF91CF91089593
:1009B000CF93DF93CDB7DEB784E490E022E0FC0173
:1009C000208385E490E023E0FC0120838EE690E024
:1009D00022E0FC01208387E490E02AEFFC012083E1
:0C09E0000000DF91CF910895F894FFCF44
:00000001FF
