S01700006D61737465725F4855425F6E6F64652E737265633E
S11300000C943E000C9450000C9450000C9450003E
S11300100C9450000C9450000C9450000C9450001C
S11300200C9450000C9450000C9450000C9450000C
S11300300C9450000C9450000C9450000C94120139
S11300400C9450000C9450000C9428010C94500013
S11300500C9450000C9450000C9450000C945000DC
S11300600C9450000C9450000C9450000C945000CC
S11300700C9450000C9450000C94500011241FBE9A
S1130080CFEFD8E0DEBFCDBF21E0A0E0B1E001C0FA
S11300901D92A430B207E1F70E94A7000C94390125
S11300A00C940000CF93DF93AC0110920001809177
S11300B00001843008F048C0E0910001EB01A981FF
S11300C0BA81F0E0EE0FFF1FE40FF51F0190F081FD
S11300D0E02D808191818A179B0769F50FC0E0911B
S11300E00001F0E0EE0FFF1FE40FF51F0190F08117
S11300F0E02D208131812A173B07E9F4E0910001CA
S1130100F0E0EE0FFF1FE40FF51F0190F081E02DEA
S1130110DB0116968C9182838091000190E0880F18
S1130120991FFA01E80FF91F0190F081E02D8381F6
S11301308F5F838309C0909100019F5F90930001BA
S113014090910001943058F2DF91CF910895CF93AC
S1130150DF93CDB7DEB7A6970FB6F894DEBF0FBE18
S1130160CDBF10920201CE010196988B8F8781E05A
S1130170898B98E09E8789871B861A862FEF30E04B
S11301803C8B2B8B1D8A8F8B809101018823D1F1AD
S113019080910301882361F0BE01675F7F4FCE0128
S11301A043960E9452008091030181508093030181
S11301B080910201853130F110920001809100019B
S11301C08430F0F48091000190E0FC01EE0FFF1FF9
S11301D0EE0FFF1F8E0F9F1FE1E0F0E0EC0FFD1FFD
S11301E0E80FF91F8689813011F480910001809114
S11301F000018F5F8093000180910001843010F32F
S1130200109202018091010181508093010180E0EC
S113021090E0A6960FB6F894DEBF0FBECDBFDF9177
S1130220CF9108951F920F920FB60F9211248F93BE
S1130230809101018F5F80930101809102018F5FA2
S1130240809302018F910F900FBE0F901F9018950D
S11302501F920F920FB60F9211248F938091030176
S11302608F5F809303018F910F900FBE0F901F90AB
S10902701895F894FFCF7D
S9030000FC
