:100000000C943E000C9450000C9450000C94500042
:100010000C9450000C9450000C9450000C94500020
:100020000C9450000C9450000C9450000C94500010
:100030000C9450000C9450000C9450000C94FC0153
:100040000C9450000C9450000C940D020C94500031
:100050000C9450000C9450000C9450000C945000E0
:100060000C9450000C9450000C9450000C945000D0
:100070000C9450000C9450000C94500011241FBE9E
:10008000CFEFD8E0DEBFCDBF21E0A0E0B1E001C0FE
:100090001D92A432B207E1F70E9469010C94AC02F0
:1000A0000C94000084EE80937A00559826983C9832
:1000B00082E084BD93E095BD80936E008CE787BDA0
:1000C0000895CF93DF9380E0CDEED0E0AFEEB0E0C7
:1000D000EEEEF0E0982F9295907F98831C9210821C
:1000E0008F5F8630B9F7DF91CF91089581E08093DB
:1000F000D80082E08093E20084E08093E30083E113
:100100008093E40081E00895FC0180858295807FE2
:100110008093ED00AEEDB0E08C9121E030E0008402
:1001200002C0220F331F0A94E2F7282B2C938381FD
:1001300094819695879596958795969587958093C2
:10014000F70083818295880F807E8093F60010925D
:10015000F5001092F40088E88093EF000895CF93A3
:10016000DF93DC0118968C9118978630E8F582951C
:10017000807F8093ED001092EE0011968D919C91FE
:1001800012979695879596958795969587958093DE
:10019000F30011968C9111978295880F807E809341
:1001A000F2001092F1001092F00020E030E0CAEF6F
:1001B000D0E01696ED91FC911797E20FF31F908116
:1001C00098832F5F3F4F2830310599F715968C9112
:1001D00080648093EF00EEEEF0E0808186FFFDCF3B
:1001E0001092EF001092EE00DF91CF910895FC0184
:1001F0002081222319F0213021F006C00E94AF0097
:1002000008C00E94840005C08BB180588BB983E080
:10021000089582E00895CF93DF93DC0118968C91C6
:1002200018978295807F8093ED008091F300209154
:10023000F20090E0880F991F880F991F880F991F6F
:10024000229526952770820F911D12969C938E936E
:1002500011978091EE0085FF26C08091EF008F708E
:1002600015968C9315978823C9F090E0CAEFD0E0DB
:1002700088811696ED91FC911797E90FF11D97FD76
:10028000FA9580839F5F492F092E000C550B159618
:100290002C91159730E04217530754F388E8809368
:1002A000EF001092EE00DF91CF9108950E9476004A
:1002B0000E946100E8EDF0E080818260808380EA46
:1002C0008093DB0081E0089584E087B9519A579AC2
:1002D0000895CF93DF93CDB7DEB7A4970FB6F89408
:1002E000DEBF0FBECDBFCE010196988B8F87198AD6
:1002F00088E08E8791E099871D861C869E012D5E81
:100300003F4F3AA329A39BA388A31B8E01E010E0D3
:100310001F8F0E8F0E9464010E9456010E9452009E
:10032000CE0109960E94F700E2E0F1E0118300831C
:1003300082E090E096878587789400E010E08091D5
:1003400001018823E1F38091010181508093010133
:100350001F5F0F5F80910001882391F1CE01099604
:100360000E940B0142E062E071E0CE0109960E941A
:100370005602A9A1BAA1E2E0F1E0808191818C93BB
:10038000A9A1BAA18A8511968C93A9A1BAA1878146
:1003900012968C93A9A1BAA18585968514968C9303
:1003A000A9A1BAA18A8515968C93A9A1BAA184891D
:1003B00016968C93CE014B960E94F7001092000186
:1003C00080910901181740F080910901882321F0DC
:1003D0008BB180588BB910E080911601081708F492
:1003E000AECF80911601882309F4A9CF9BB182E09A
:1003F00089278BB900E0A3CF1F920F920FB60F92FF
:1004000011248F93809101018F5F809301018F915F
:100410000F900FBE0F901F9018951F920F920FB65E
:100420000F9211248F93809100018F5F80930001C0
:100430008F910F900FBE0F901F901895DC01FB015C
:1004400011968C911197807F90E095958795959561
:1004500087959595879595958795828311968C912B
:1004600011978F70838312968C91129784831396C1
:100470008C911397858314968C911497807F90E0CC
:100480009595879595958795959587959595879554
:10049000868314968C9114978F70878315968C9110
:1004A0001597808716968C9181870895EF92FF9219
:1004B0000F931F93CF93DF93CDB7DEB728970FB677
:1004C000F894DEBF0FBECDBF8C01FC01E680F78043
:1004D000D701FE0131969E01275F3F4F9D91919379
:1004E000E217F307D9F7F7019081907F903C39F537
:1004F00050E0141615061CF5F801A181B281FB012C
:1005000080819181A817B90789F40BC0682F792FD2
:100510000D96FC013D970190F081E02DEA17FB0755
:1005200049F4CE0101960E941E0209C0CB010D962E
:1005300020E030E02F5F3F4F2417350739F728962A
:100540000FB6F894DEBF0FBECDBFDF91CF911F91E4
:0C0550000F91FF90EF900895F894FFCFFA
:00000001FF
