:100000000C947F000C9491000C9491000C9491003E
:100010000C9491000C9491000C9491000C9491001C
:100020000C9491000C9491000C9491000C9491000C
:100030000C9491000C9491000C9491000C944C023F
:100040000C9491000C9491000C945D020C9491001E
:100050000C9491000C9491000C9491000C949100DC
:100060000C9491000C9491000C9491000C949100CC
:100070000C9491000C9491000C949100076342360B
:10008000B79BD8A71A39685618AEBAAB558C1D3C29
:10009000B7CC5763BD6DEDFD753EF6177231BF00ED
:1000A0000000803F08000000BE922449123EABAA27
:1000B000AA2ABECDCCCC4C3E00000080BEABAAAA82
:1000C000AA3E00000000BF000000803F00000000CA
:1000D00000084178D3BB4387D1133D190E3CC3BD03
:1000E0004282AD2B3E68EC8276BED98FE1A93E4CB0
:1000F00080EFFFBE01C4FF7F3F000000000011241D
:100100001FBECFEFD8E0DEBFCDBF21E0A0E0B1E061
:1001100001C01D92AA32B207E1F70E94AB010C9414
:10012000F2070C94000084EE80937A00559826988C
:100130003C98089582E084BD93E095BD80936E0065
:100140008AEF87BD0895CF93DF9380E0CDEED0E0B6
:10015000AFEEB0E0EEEEF0E0982F9295907F9883AE
:100160001C9210828F5F8630B9F7DF91CF9108958E
:1001700081E08093D80082E08093E20084E0809365
:10018000E30083E18093E40081E00895FC01808531
:100190008295807F8093ED00AEEDB0E08C9121E000
:1001A00030E0008402C0220F331F0A94E2F7282BAC
:1001B0002C938381948196958795969587959695AE
:1001C00087958093F70083818295880F807E809346
:1001D000F6001092F5001092F40088E88093EF008A
:1001E0000895CF93DF93DC0118968C911897863091
:1001F000E8F58295807F8093ED001092EE001196D5
:100200008D919C9112979695879596958795969541
:1002100087958093F30011968C9111978295880FA2
:10022000807E8093F2001092F1001092F00020E0A6
:1002300030E0CAEFD0E01696ED91FC911797E20FEF
:10024000F31F908198832F5F3F4F2830310599F736
:1002500015968C9180648093EF00EEEEF0E0808143
:1002600086FFFDCF1092EF001092EE00DF91CF914C
:100270000895FC012081222319F0213021F006C0CD
:100280000E94F10008C00E94C60005C08BB18058D2
:100290008BB983E0089582E00895CF93DF93DC016A
:1002A00018968C9118978295807F8093ED008091AD
:1002B000F3002091F20090E0880F991F880F991F9A
:1002C000880F991F229526952770820F911D1296EF
:1002D0009C938E9311978091EE0085FF26C08091AC
:1002E000EF008F7015968C9315978823C9F090E0D6
:1002F000CAEFD0E088811696ED91FC911797E90F2F
:10030000F11D97FDFA9580839F5F492F092E000C00
:10031000550B15962C91159730E04217530754F35F
:1003200088E88093EF001092EE00DF91CF9108955E
:100330000E94B8000E94A300E8EDF0E08081826096
:10034000808380EA8093DB0081E0089584E087B9B0
:10035000519A579A0895CF93DF93CDB7DEB7CE5613
:10036000D1090FB6F894DEBF0FBECDBFCE01019606
:10037000988B8F87198A88E08E8791E099871D86F0
:100380001C869E012D5E3F4F3AA329A39BA388A301
:100390001B8E41E050E05D8F4C8FE2E0F1E0518335
:1003A0004083AE01455E5F4F538742873CA72BA732
:1003B00092E09DA78AA71DA222E030E03FA32EA3D2
:1003C000318B208B9E012B5D3F4F338F228F265F19
:1003D0003F4F368725878787205E3F4F368F258F93
:1003E000878F0E94A6010E9498010E9493000E949C
:1003F0009A00CE0109960E9439017894B12C812C83
:1004000002E011E00F2EC12CD12CF0E2EF2EF1E42E
:10041000FF2EF02D902EA12E809100018823C9F08F
:10042000F801C682D782E086F186C68AD78AE08E36
:10043000F18ECE0109960E944D0142E0692D7A2D80
:10044000CE0109960E94EC03109200018BB18058F6
:100450008BB9809101018823F9F2809101018150CB
:10046000809301018394B394F8018481881638F055
:100470008481882321F0C8010E946103812CF80146
:100480008489B81648F28489882331F282E191E0A8
:100490000E946103B12CC0CF1F920F920FB60F9232
:1004A00011248F93809101018F5F809301018F91BF
:1004B0000F900FBE0F901F9018951F920F920FB6BE
:1004C0000F9211248F939F93809100018F5F8093EF
:1004D00000019BB182E089278BB99F918F910F908A
:1004E0000FBE0F901F901895CF93DF93DB011196ED
:1004F000EC9111972E2F2F70EC012F87E07FF0E009
:10050000F695E795F695E7958D859E85E80FF91F99
:1005100015965C91159714964C91149713963C91EF
:10052000139712962C91852F942FA32FB22F80838F
:100530009183A283B383DF91CF910895FC01A285BB
:10054000B38516960D90BC91A02D84EC8C93A2855A
:10055000B38516960D90BC91A02D9281838120E1E8
:10056000929F800D112411968C93A285B3851696C7
:100570000D90BC91A02D848112968C93A285B38599
:1005800016960D90BC91A02D858113968C93A28513
:10059000B38516960D90BC91A02D858114968C93F1
:1005A000A285B38516960D90BC91A02D84851596D5
:1005B0008C93A285B38516960D90BC91A02D87854E
:1005C00016968C93A285B38516960D90BC91A02D9E
:1005D00017961C92828593850E94390108952F9267
:1005E0003F924F925F926F927F928F929F92AF92C3
:1005F000BF92CF92DF92EF92FF920F931F93CF9310
:10060000DF93EC010D851E85F801C080D180E2806A
:10061000F38020E030EC4FE754E46E817F818885E1
:1006200099850E94000520E030E040EA50E40E94F5
:1006300000062B013C012F84312CF1E02F1A3108E8
:10064000121413044CF50C5F1F4FC0E0D0E0F8010A
:1006500081909190A190B1908F012196BE010D2EB5
:10066000000C880B990B0E9474059B01AC01C3011F
:10067000B2010E946D069B01AC01C501B4010E944C
:1006800000069B01AC01C701B6010E9494046B01F6
:100690007C01C215D305DCF2C701B601DF91CF9111
:1006A0001F910F91FF90EF90DF90CF90BF90AF9090
:1006B0009F908F907F906F905F904F903F902F9082
:1006C00008950F931F93CF93DF9300D000D0CDB741
:1006D000DEB78C010E94EF0269837A838B839C834F
:1006E000D8011A96ED91FC911B970680F781E02DB9
:1006F00080E380831A96ED91FC911B970680F78129
:10070000E02D12969C91129713968C91B0E19B9FCD
:10071000800D11248183D8011A96ED91FC911B97CD
:100720000680F781E02D8C8182831A96ED91FC91F1
:100730001B970680F781E02D8B8183831A96ED91BC
:10074000FC911B970680F781E02D8A8184831A969D
:10075000ED91FC911B970680F781E02D89818583BF
:100760001A96ED91FC911B970680F781E02D168279
:100770001A96ED91FC911B970680F781E02D178268
:100780001A968D919C911B970E9439010F900F90A2
:100790000F900F90DF91CF911F910F910895DC0181
:1007A000FB0111962C911197207F30E0359527950C
:1007B000359527953595279535952795228311965B
:1007C0008C9111978F70838312968C9112978483EA
:1007D00013968C9185830895EF92FF920F931F9348
:1007E000CF93DF93CDB7DEB728970FB6F894DEBF6F
:1007F0000FBECDBF8C019B01FC01E680F780D701C5
:10080000FE013196BE01675F7F4F9D919193E61780
:10081000F707D9F7F7019081953C29F1903E21F037
:10082000933C09F073C010C050E0141615060CF08C
:100830006DC0F801A181B281F90180819181A81771
:10084000B90709F059C053C050E0141615060CF052
:100850005DC0F801A181B281F90180819181A81761
:10086000B90771F520C0442309F450C0F801418153
:100870005281F901808191814817590709F046C0DA
:10088000BE016F5F7F4FC9010E9474023FC0062FF7
:10089000172F605F7F4FFB017097208131812A17EE
:1008A0003B0799F402C0022F132F602F712FCE0146
:1008B00001960E94CF03802F912F0E949E0226C096
:1008C000B901605F7F4F80E090E001968417950743
:1008D000F1F61CC0862F972F605F7F4FFB0170974A
:1008E0000190F081E02DEA17FB0759F402C0822F36
:1008F000932F0E9461030AC0B901605F7F4F20E01F
:1009000030E02F5F3F4F2417350721F728960FB6A9
:10091000F894DEBF0FBECDBFDF91CF911F910F9135
:10092000FF90EF9008955058BB27AA270E94AB0470
:100930000C94C6050E94B80538F00E94BF0520F04F
:1009400039F49F3F19F426F40C94B5050EF4E095A4
:10095000E7FB0C94AF05E92F0E94D70558F3BA17AF
:10096000620773078407950720F079F4A6F50C94C5
:10097000F9050EF4E0950B2EBA2FA02D0B01B9014D
:1009800090010C01CA01A0011124FF27591B99F005
:10099000593F50F4503E68F11A16F040A22F232F11
:1009A000342F4427585FF3CF469537952795A79561
:1009B000F0405395C9F77EF41F16BA0B620B730B08
:1009C000840BBAF09150A1F0FF0FBB1F661F771F79
:1009D000881FC2F70EC0BA0F621F731F841F48F42E
:1009E000879577956795B795F7959E3F08F0B0CFB7
:1009F0009395880F08F09927EE0F9795879508959E
:100A00000E9414050C94C6050E94BF0558F00E9470
:100A1000B80540F029F45F3F29F00C94AF0551115F
:100A20000C94FA050C94B5050E94D70568F3992338
:100A3000B1F3552391F3951B550BBB27AA276217DA
:100A40007307840738F09F5F5F4F220F331F441FE7
:100A5000AA1FA9F335D00E2E3AF0E0E832D091501B
:100A60005040E695001CCAF72BD0FE2F29D0660F08
:100A7000771F881FBB1F261737074807AB07B0E84B
:100A800009F0BB0B802DBF01FF2793585F4F3AF051
:100A90009E3F510578F00C94AF050C94FA055F3F2A
:100AA000E4F3983ED4F3869577956795B795F795D7
:100AB0009F5FC9F7880F911D9695879597F90895BF
:100AC000E1E0660F771F881FBB1F6217730784075B
:100AD000BA0720F0621B730B840BBA0BEE1F88F76A
:100AE000E0950895E89409C097FB3EF490958095B1
:100AF000709561957F4F8F4F9F4F9923A9F0F92FE4
:100B000096E9BB279395F695879577956795B79561
:100B1000F111F8CFFAF4BB0F11F460FF1BC06F5F47
:100B20007F4F8F4F9F4F16C0882311F096E911C059
:100B3000772321F09EE8872F762F05C0662371F07A
:100B400096E8862F70E060E02AF09A95660F771F8E
:100B5000881FDAF7880F9695879597F9089597F982
:100B60009F6780E870E060E008959FEF80EC089553
:100B700000240A941616170618060906089500247C
:100B80000A9412161306140605060895092E0394F6
:100B9000000C11F4882352F0BB0F40F4BF2B11F46A
:100BA00060FF04C06F5F7F4F8F4F9F4F089557FDC9
:100BB0009058440F551F59F05F3F71F04795880FCB
:100BC00097FB991F61F09F3F79F087950895121662
:100BD00013061406551FF2CF4695F1DF08C016160E
:100BE00017061806991FF1CF8695710561050894BF
:100BF0000895E894BB2766277727CB0197F90895D6
:100C00000E9413060C94C6050E94B80538F00E9495
:100C1000BF0520F0952311F00C94AF050C94B50599
:100C200011240C94FA050E94D70570F3959FC1F327
:100C3000950F50E0551F629FF001729FBB27F00D8A
:100C4000B11D639FAA27F00DB11DAA1F649F6627DF
:100C5000B00DA11D661F829F2227B00DA11D621F2E
:100C6000739FB00DA11D621F839FA00D611D221FE8
:100C7000749F3327A00D611D231F849F600D211DCC
:100C8000822F762F6A2F11249F5750409AF0F1F04F
:100C900088234AF0EE0FFF1FBB1F661F771F881FB8
:100CA00091505040A9F79E3F510580F00C94AF053C
:100CB0000C94FA055F3FE4F3983ED4F3869577955C
:100CC0006795B795F795E7959F5FC1F7FE2B880F5E
:100CD000911D9695879597F90895FA01EE0FFF1FDC
:100CE000309621053105A1F16115710561F4803857
:100CF000BFE39B0749F168949038810561F0803823
:100D0000BFEF9B0741F099234AF5FF3FE10531050D
:100D1000210519F1E8940894E795D901AA2329F44B
:100D2000AB2FBE2FF85FD0F310C0FF5F70F4A69515
:100D3000E0F7F73950F019F0FF3A38F49F779F93B6
:100D40000DD00F9007FC9058089546F00C94B5050F
:100D500060E070E080E89FE308954FE79F775F933E
:100D60004F933F932F930E9468072F913F914F918C
:100D70005F910E9400060C94C50629F416F00C94AD
:100D8000AF050C94F9050C94B5050E94DF05A8F396
:100D90009638A0F707F80F92E8942BE33AEA48EB6D
:100DA0005FE70E9416060F920F920F924DB75EB743
:100DB0000F920E94B007ECE7F0E00E94F7064F9117
:100DC0005F91EF91FF91E595EE1FFF1F49F0FE57F0
:100DD000E0684427EE0F441FFA95E1F74195550B63
:100DE0000E942A070F9007FE0C941E070895DF93B8
:100DF000CF931F930F93FF92EF92DF927B018C01B1
:100E0000689406C0DA2EEF010E941306FE01E894F2
:100E1000A5912591359145915591A6F3EF010E9439
:100E2000AB04FE019701A801DA9469F7DF90EF9017
:100E3000FF900F911F91CF91DF9108959B01AC011D
:100E400060E070E080E89FE30C9400050C94AF052F
:100E50000C94E4070E94DF05D8F39923C9F3940F9B
:100E6000511DA3F39150504094F059F0882332F073
:100E7000660F771F881F91505040C1F79E3F510564
:100E80002CF7880F911D9695879597F908955F3FE8
:100E9000ACF0983E9CF0BB27869577956795B79503
:100EA00008F4B1609395C1F7BB0F58F711F460FFD8
:100EB000E8CF6F5F7F4F8F4F9F4FE3CF0C94FA05C2
:100EC00016F00C94E4070C94B50568940C94AF05E7
:100ED0000E94DF05A8F39923C1F3AEF3DF93CF930C
:100EE0001F930F93FF92C92FDD2788232AF02197A4
:100EF000660F771F881FDAF720E030E040E85FEBED
:100F00009FE3883920F0803E38F021968F770E9449
:100F10009404E4EAF0E004C00E949404E1EDF0E0FF
:100F20000E94F7068B01BE01EC01FB2E6F57710981
:100F30007595771F880B990B0E94740528E132E79D
:100F400041E35FE30E941306AF2D9801AE01FF90CD
:100F50000F911F91CF91DF910E94AB040C94C605B5
:100F6000FA01DC01AA0FBB1F9B01AC01BF5728F49B
:100F7000222733274427507820C0B75190F4AB2F55
:100F80000024469537952795011CA395D2F30020A0
:100F900071F0220F331F441FB395DAF30ED00C9477
:100FA000930461307105A0E88A07B94630F49B01CB
:100FB000AC016627772788279078309621F0208328
:100FC00031834283538308959F3F31F0915020F441
:100FD000879577956795B795880F911D9695879515
:080FE00097F90895F894FFCF82
:00000001FF
