S01A00006D61737465725F53656E736F725F4E6F64652E73726563C0
S11300000C943E000C9450000C9450000C9450003E
S11300100C9450000C9450000C9450000C9450001C
S11300200C9450000C9450000C9450000C9450000C
S11300300C9450000C9450000C9450000C94D40177
S11300400C9450000C9450000C94E5010C94500056
S11300500C9450000C9450000C9450000C945000DC
S11300600C9450000C9450000C9450000C945000CC
S11300700C9450000C9450000C94500011241FBE9A
S1130080CFEFD8E0DEBFCDBF21E0A0E0B1E001C0FA
S11300901D92A230B207E1F70E946C010C94F601A4
S11300A00C94000084EE80937A0082E680937C00B6
S11300B0559882E084BD93E095BD80936E008CE7F3
S11300C087BD0895CF93DF9380E0CDEED0E0AFEE0F
S11300D0B0E0EEEEF0E0982F9295907F98831C921A
S11300E010828F5F8630B9F7DF91CF91089581E058
S11300F08093D80082E08093E20084E08093E30060
S113010083E18093E40081E00895FC018085829579
S1130110807F8093ED00AEEDB0E08C9121E030E083
S1130120008402C0220F331F0A94E2F7282B2C9379
S113013083819481969587959695879596958795CD
S11301408093F70083818295880F807E8093F600E8
S11301501092F5001092F40088E88093EF0008955F
S1130160CF93DF93DC0118968C9118978630E8F5CD
S11301708295807F8093ED001092EE0011968D9110
S11301809C911297969587959695879596958795C0
S11301908093F30011968C9111978295880F807E3D
S11301A08093F2001092F1001092F00020E030E011
S11301B0CAEFD0E01696ED91FC911797E20FF31F6A
S11301C0908198832F5F3F4F2830310599F715961A
S11301D08C9180648093EF00EEEEF0E0808186FFE6
S11301E0FDCF1092EF001092EE00DF91CF910895B1
S11301F0FC012081222319F0213021F006C00E9445
S1130200B00008C00E94850005C08BB180588BB92E
S113021083E0089582E00895CF93DF93DC0118967C
S11302208C9118978295807F8093ED008091F300E4
S11302302091F20090E038E0239F800D911D11245D
S113024012969C938E9311978091EE0085FF26C0A1
S11302508091EF008F7015968C9315978823C9F0C1
S113026090E0CAEFD0E088811696ED91FC91179743
S1130270E90FF11D97FDFA9580839F5F492F092EA1
S1130280000C550B15962C91159730E04217530727
S113029054F388E88093EF001092EE00DF91CF9141
S11302A008950E9477000E946200E8EDF0E08081EA
S11302B08260808380EA8093DB0081E0089584E09B
S11302C087B9519A579A599A0895FC010896119240
S11302D0E817F907E1F70895CF93DF93CDB7DEB7B9
S11302E0A4970FB6F894DEBF0FBECDBFCE01019622
S11302F0988B8F8781E0898B98E09E8789871B86FE
S11303001A869E012D5E3F4F3AA329A38BA398A37F
S11303101B8E81E090E09F8F8E8F0E945F010E9470
S113032051010E9452007894CE0109960E94F8006F
S113033010E000E06894FF24F1F880910101882323
S1130340E1F3809101018150809301010F5F80915D
S11303500001882399F0CE0109960E940C01EF85D3
S1130360F88980818F3F19F48BB180588BB9109232
S113037000011F5F809100018111EDCF043620F050
S11303808BB18F258BB900E01123B9F2CE014396CE
S11303900E946501E9A1FAA18A858083CE014B966A
S11303A00E94F8001150C9CF1F920F920FB60F92FE
S11303B011248F93809101018F5F809301018F91AC
S11303C00F900FBE0F901F9018951F920F920FB6AB
S11303D00F9211248F93809100018F5F809300010D
S11303E08F910F900FBE0F901F901895F894FFCF28
S9030000FC
