:100000000C943E000C9450000C9450000C94500042
:100010000C9450000C9450000C9450000C94500020
:100020000C9450000C9450000C9450000C94500010
:100030000C9450000C9450000C9450000C949D02B1
:100040000C9450000C9450000C94AE020C94500090
:100050000C9450000C9450000C9450000C945000E0
:100060000C9450000C9450000C9450000C94BF025F
:100070000C9450000C9450000C94500011241FBE9E
:10008000CFEFD8E0DEBFCDBF21E0A0E0B1E001C0FE
:100090001D92AC32B207E1F70E94DA010C944D05D3
:1000A0000C94000084EC80937A00559826983C9834
:1000B00008950F931F93CF93DF93EC018B01863646
:1000C000910520F461E0C8010E944903CA39D34078
:1000D00020F062E0C8010E944903DF91CF911F9197
:1000E0000F9108950F931F93CF93DF93EC018889AD
:1000F0008130F9F482E480937C000AE710E0F80193
:10010000808180648083809178006091790070E0C4
:10011000762F6627680F711D80E090E00E94E7044B
:10012000F8012081206120836E837F8388879987EF
:1001300024C08230F9F487E480937C000AE710E061
:10014000F8018081806480838091780060917900DB
:1001500070E0762F6627680F711D80E090E00E94A6
:10016000E704F8012081206120836E837F838887E4
:10017000998703C060E070E0CB010E94B804DC0105
:10018000CB01BE010E945900DF91CF911F910F91C9
:10019000089582E084BD93E095BD80936E008AEF60
:1001A00087BD0895CF93DF9380E0CDEED0E0AFEE32
:1001B000B0E0EEEEF0E0982F9295907F98831C923D
:1001C00010828F5F8630B9F7DF91CF91089581E07B
:1001D0008093D80082E08093E20084E08093E30083
:1001E00083E18093E40081E00895FC01808582959D
:1001F000807F8093ED00AEEDB0E08C9121E030E0A7
:10020000008402C0220F331F0A94E2F7282B2C939C
:1002100083819481969587959695879596958795F0
:100220008093F70083818295880F807E8093F6000B
:100230001092F5001092F40088E88093EF00089582
:10024000CF93DF93DC0118968C9118978630E8F5F0
:100250008295807F8093ED001092EE0011968D9133
:100260009C911297969587959695879596958795E3
:100270008093F30011968C9111978295880F807E60
:100280008093F2001092F1001092F00020E030E034
:10029000CAEFD0E01696ED91FC911797E20FF31F8D
:1002A000908198832F5F3F4F2830310599F715963D
:1002B0008C9180648093EF00EEEEF0E0808186FF09
:1002C000FDCF1092EF001092EE00DF91CF910895D4
:1002D000FC012081222319F0213021F006C00E9468
:1002E000200108C00E94F50005C08BB180588BB971
:1002F00083E0089582E00895CF93DF93DC011896A0
:100300008C9118978295807F8093ED008091F30007
:100310002091F20090E0880F991F880F991F880F95
:10032000991F229526952770820F911D12969C93F6
:100330008E9311978091EE0085FF26C08091EF008B
:100340008F7015968C9315978823C9F090E0CAEFAB
:10035000D0E088811696ED91FC911797E90FF11D79
:1003600097FDFA9580839F5F492F092E000C550B4E
:1003700015962C91159730E04217530754F388E8EF
:100380008093EF001092EE00DF91CF9108950E94CC
:10039000E7000E94D200E8EDF0E080818260808377
:1003A00080EA8093DB0081E0089584E087B9519A68
:1003B000579A0895CF93DF93CDB7DEB7CE56D109C4
:1003C0000FB6F894DEBF0FBECDBFCE010196988B5D
:1003D0008F87198A88E08E8791E099871D861C8611
:1003E0009E012D5E3F4F3AA329A39BA388A31B8E9A
:1003F00041E050E05D8F4C8FE2E0F1E051834083BB
:10040000AE01455E5F4F538742873CA72BA792E022
:100410009DA78AA71DA222E030E03FA32EA3328B26
:10042000218B9E012B5D3F4F348F238F265F3F4FE3
:10043000368725878787205E3F4F378F268F80A39B
:1004400020813181818992898217930728F481E084
:10045000808B82E081A306C0E2E0F1E081E081A32D
:1004600082E0808B0E94D5010E94C7010E94520049
:100470000E94C900CE0109960E9468017894E12C7F
:10048000912CA12CB12C02E011E0FF24FA94C02E93
:10049000D12E80910001882391F0F801F58EF58A24
:1004A000F486F482CE0109960E947C0142E06C2D14
:1004B0007D2DCE0109960E941104109200018091B9
:1004C0000101882331F38091010181508093010162
:1004D000B394A3949394E394F8018485B81638F008
:1004E0008485882321F0C8010E947200B12CF80194
:1004F000858DA81640F0858D882329F083E191E051
:100500000E947200A12CF8018481981638F0848131
:10051000882321F0C8010E949003912CF80185895D
:10052000E81608F4B6CF8589882309F4B2CF83E1B1
:1005300091E00E949003E12CACCF1F920F920FB676
:100540000F9211248F93809101018F5F809301019D
:100550008F910F900FBE0F901F9018951F920F92C2
:100560000FB60F9211248F93809100018F5F8093BB
:1005700000018F910F900FBE0F901F9018951F9242
:100580000F920FB60F9211248F938BB180588BB9B5
:100590008F910F900FBE0F901F901895CF93DF9300
:1005A000DB011196EC9111972E2F2F70EC012F8704
:1005B000E07FF0E0F695E795F695E7958D859E85C9
:1005C000E80FF91F15965C91159714964C911497A6
:1005D00013963C91139712962C91852F942FA32F4D
:1005E000B22F80839183A283B383DF91CF9108954B
:1005F000FC01A285B38516960D90BC91A02D84ECCC
:100600008C93A285B38516960D90BC91A02D9281F6
:10061000838120E1929F800D112411968C93A285F5
:10062000B38516960D90BC91A02D848112968C9363
:10063000A285B38516960D90BC91A02D8581139649
:100640008C93A285B38516960D90BC91A02D8581C3
:1006500014968C93A285B38516960D90BC91A02D0F
:10066000848515968C93A285B38516960D90BC91C2
:10067000A02D878516968C93A285B38516960D902E
:10068000BC91A02D17961C92828593850E946801CB
:100690000895FC01A285B38516960D90BC91A02DFE
:1006A00080EA8C93A285B38516960D90BC91A02DFF
:1006B00011966C93A285B38516960D90BC91A02DD2
:1006C000808112968C93A285B38516960D90BC916D
:1006D000A02D13961C92A285B38516960D90BC9101
:1006E000A02D14961C92A285B38516960D90BC91F0
:1006F000A02D15961C92A285B38516960D90BC91DF
:10070000A02D16961C92A285B38516960D90BC91CD
:10071000A02D17961C92828593850E9468010895EA
:10072000CF93DF9300D000D0CDB7DEB7FC01868138
:100730009781A085B18589839A83AB83BC83A28589
:10074000B38516960D90BC91A02D80E38C93A28565
:10075000B38516960D90BC91A02D9281838120E1E6
:10076000929F800D112411968C93A285B3851696C5
:100770000D90BC91A02D8C8112968C93A285B3858F
:1007800016960D90BC91A02D8B8113968C93A2850B
:10079000B38516960D90BC91A02D8A8114968C93EA
:1007A000A285B38516960D90BC91A02D89811596D2
:1007B0008C93A285B38516960D90BC91A02D1696AC
:1007C0001C92A285B38516960D90BC91A02D17960C
:1007D0001C92828593850E9468010F900F900F9064
:1007E0000F90DF91CF910895DC01FB0111962C91C0
:1007F0001197207F30E035952795359527953595CC
:10080000279535952795228311968C9111978F7096
:10081000838312968C911297848313968C9185838F
:100820000895EF92FF920F931F93CF93DF93CDB76D
:10083000DEB728970FB6F894DEBF0FBECDBF8C0190
:100840009B01FC01E680F780D701FE013196BE01D5
:10085000675F7F4F9D919193E617F707D9F7F701EF
:100860009081953C29F1903E21F0933C09F073C0B2
:1008700010C050E0141615060CF06DC0F801A181EF
:10088000B281F90180819181A817B90709F059C097
:1008900053C050E0141615060CF05DC0F801A1819C
:1008A000B281F90180819181A817B90771F520C043
:1008B000442309F450C0F80141815281F90180813B
:1008C00091814817590709F046C0BE016F5F7F4FFD
:1008D000C9010E94CE023FC0062F172F6F5E7F4FC7
:1008E000FB017197208131812A173B0799F402C0DF
:1008F000022F132F602F712FCE0101960E94F40357
:10090000802F912F0E94F80226C0B9016F5E7F4FA1
:1009100080E090E0019684179507F1F61CC0862FC1
:10092000972F6F5E7F4FFB0171970190F081E02D53
:10093000EA17FB0759F402C0822F932F0E949003FD
:100940000AC0B9016F5E7F4F20E030E02F5F3F4F5C
:100950002417350721F728960FB6F894DEBF0FBE8F
:10096000CDBFDF91CF911F910F91FF90EF90089530
:100970000E942C0588F09F5798F0B92F9927B751FE
:10098000B0F0E1F0660F771F881F991F1AF0BA9533
:10099000C9F714C0B13091F00E944605B1E0089546
:1009A0000C944605672F782F8827B85F39F0B93F38
:1009B000CCF3869577956795B395D9F73EF49095E6
:1009C0008095709561957F4F8F4F9F4F0895E89464
:1009D00009C097FB3EF490958095709561957F4F87
:1009E0008F4F9F4F9923A9F0F92F96E9BB27939535
:1009F000F695879577956795B795F111F8CFFAF445
:100A0000BB0F11F460FF1BC06F5F7F4F8F4F9F4F75
:100A100016C0882311F096E911C0772321F09EE8D3
:100A2000872F762F05C0662371F096E8862F70E039
:100A300060E02AF09A95660F771F881FDAF7880F13
:100A40009695879597F9089557FD9058440F551F2F
:100A500059F05F3F71F04795880F97FB991F61F040
:100A60009F3F79F087950895121613061406551FB7
:100A7000F2CF4695F1DF08C0161617061806991F23
:100A8000F1CF86957105610508940895E894BB2718
:0E0A900066277727CB0197F90895F894FFCFDA
:00000001FF
