S019000046697273742043616E206D6573736167652E73726563CC
S11300000C943E000C9448000C9448000C94480056
S11300100C9448000C9448000C9448000C9448003C
S11300200C9448000C9448000C9448000C9448002C
S11300300C9448000C9448000C9448000C9448001C
S11300400C9448000C9448000C9448000C9448000C
S11300500C9448000C9448000C9448000C944800FC
S11300600C9448000C9448000C9448000C944800EC
S11300700C9448000C9448000C94480011241FBEB2
S1130080CFEFD8E0DEBFCDBF0E9455000C94CD0069
S11300900C940000882341F0E7E8F3E13197F1F78D
S11300A000C000008150C1F7089584E087B9519AD7
S11300B0579A5F9A81E08093D8001092E50082E01D
S11300C08093E2008CE08093E30087E38093E40074
S11300D080E0CDEED0E0AFEEB0E0EEEEF0E0982FB1
S11300E09295907F98831C9210828F5F8630B9F727
S11300F080E18093ED001092F7001092F6001092C8
S1130100F5001092F400E8EDF0E0808182608083D5
S11301100F2EFDEEAF2EB12CF02DCCEDD0E00F2E36
S1130120FEEECF2ED12CF02D0F2EF0EFEF2EF12C72
S1130130F02D01EF10E00F2EF2EF2F2E312CF02DC9
S11301400F2EF3EF8F2E912CF02D0F2EFAEF6F2E32
S1130150712CF02D0F2EFFEE4F2E512CF02DF501AA
S11301601082888180FDFDCFF6011082F701108294
S1130170F801108280EEF1018083F401108288E896
S1130180F301808381E4F201808384E10E944A00C8
S11101908BB192E089278BB9E2CFF894FFCFB0
S9030000FC
