S019000046697273742043616E206D6573736167652E73726563CC
S11300000C943E000C9448000C9448000C94480056
S11300100C9448000C9448000C9448000C9448003C
S11300200C9448000C9448000C9448000C9448002C
S11300300C9448000C9448000C9448000C9448001C
S11300400C9448000C9448000C9448000C9448000C
S11300500C9448000C9448000C9448000C944800FC
S11300600C9448000C9448000C9448000C944800EC
S11300700C9448000C9448000C94480011241FBEB2
S1130080CFEFD8E0DEBFCDBF0E944A000C94AE0093
S11300900C94000084E087B9519A579A5F9A93E0D0
S11300A09093D8001092E5009EE09093E200809334
S11300B0E30083E18093E40080E0CDEED0E0AFEE96
S11300C0B0E0EEEEF0E0982F9295907F98831C922A
S11300D010828F5F8630B9F780E18093ED00109233
S11300E0F7001092F6001092F5001092F4000F2E13
S11300F0FDEECF2ED12CF02DECEDF0E00F2EFEEE28
S1130100EF2EF12CF02D00EF10E061EF70E042EFE4
S113011050E00F2EF0EEAF2EF02D23EF30E0CAEFBB
S1130120D0E00F2EF8E8BF2EF02D0F2EFFEE8F2E0D
S1130130912CF02D91E4D6011C92808180FDFDCF9D
S1130140D7011C92D8011C92DB011C92DA01AC92FB
S1130150D9011C92B882D4019C93EDCFF894FFCFBF
S9030000FC
